{
  "contractName": "Recover",
  "abi": [
    {
      "inputs": [],
      "payable": false,
      "stateMutability": "nonpayable",
      "type": "constructor"
    },
    {
      "anonymous": false,
      "inputs": [
        {
          "indexed": false,
          "name": "owner",
          "type": "address"
        }
      ],
      "name": "testEvent",
      "type": "event"
    },
    {
      "constant": false,
      "inputs": [],
      "name": "GetOwner",
      "outputs": [],
      "payable": false,
      "stateMutability": "nonpayable",
      "type": "function"
    },
    {
      "constant": false,
      "inputs": [],
      "name": "Destroy",
      "outputs": [],
      "payable": false,
      "stateMutability": "nonpayable",
      "type": "function"
    }
  ],
  "bytecode": "0x608060405234801561001057600080fd5b5060008054600160a060020a033316600160a060020a03199091161790556101378061003d6000396000f30060806040526004361061004b5763ffffffff7c01000000000000000000000000000000000000000000000000000000006000350416630ae50a398114610050578063f58fef8e14610067575b600080fd5b34801561005c57600080fd5b5061006561007c565b005b34801561007357600080fd5b506100656100ca565b6000546040805173ffffffffffffffffffffffffffffffffffffffff9092168252517f2f5b0995274d6e666f9673d35e391cc76e98498ebd9200c9d53ec6251a2551379181900360200190a1565b6000543373ffffffffffffffffffffffffffffffffffffffff9081169116146100f257600080fd5b3373ffffffffffffffffffffffffffffffffffffffff16ff00a165627a7a72305820446df6f24d9bdc351583e21290ccc481179cc62c8a6dc075600d532c50f7df950029",
  "source": "// Copyright (c) 2016-2018 Clearmatics Technologies Ltd\n// SPDX-License-Identifier: LGPL-3.0+\npragma solidity ^0.4.18;\n\ncontract Recover {\n\taddress Owner;\n\n\tevent testEvent(address owner);\n\n\tconstructor () public {\n\t\tOwner = msg.sender;\n\t}\n\n  function GetOwner() public {\n    emit testEvent(Owner);\n  }\n\n\tfunction Destroy() public {\n\t\trequire( msg.sender == Owner );\n\n\t\tselfdestruct( msg.sender );\n\t}\n}\n",
  "sourcePath": "/home/user97/repos/networks/poa_network/contracts/recover.sol",
  "compiler": {
    "name": "solc",
    "version": "0.4.23+commit.124ca40d.Emscripten.clang"
  },
  "schemaVersion": "2.0.0",
  "updatedAt": "2018-06-08T14:32:31.193Z"
}