{
  "contractName": "Recover",
  "abi": [
    {
      "inputs": [],
      "payable": false,
      "stateMutability": "nonpayable",
      "type": "constructor"
    },
    {
      "anonymous": false,
      "inputs": [
        {
          "indexed": false,
          "name": "owner",
          "type": "address"
        }
      ],
      "name": "broadcastSig",
      "type": "event"
    },
    {
      "anonymous": false,
      "inputs": [
        {
          "indexed": false,
          "name": "header",
          "type": "bytes"
        },
        {
          "indexed": false,
          "name": "parentHash",
          "type": "bytes"
        },
        {
          "indexed": false,
          "name": "rootHash",
          "type": "bytes"
        }
      ],
      "name": "broadcastHashData",
      "type": "event"
    },
    {
      "anonymous": false,
      "inputs": [
        {
          "indexed": false,
          "name": "blockHash",
          "type": "bytes32"
        }
      ],
      "name": "broadcastHash",
      "type": "event"
    },
    {
      "anonymous": false,
      "inputs": [
        {
          "indexed": false,
          "name": "header",
          "type": "bytes"
        }
      ],
      "name": "test",
      "type": "event"
    },
    {
      "constant": false,
      "inputs": [
        {
          "name": "data",
          "type": "bytes32"
        },
        {
          "name": "sig",
          "type": "bytes"
        }
      ],
      "name": "VerifyHash",
      "outputs": [],
      "payable": false,
      "stateMutability": "nonpayable",
      "type": "function"
    },
    {
      "constant": false,
      "inputs": [
        {
          "name": "header",
          "type": "bytes"
        },
        {
          "name": "sig",
          "type": "bytes"
        }
      ],
      "name": "VerifyBlock",
      "outputs": [],
      "payable": false,
      "stateMutability": "nonpayable",
      "type": "function"
    },
    {
      "constant": false,
      "inputs": [
        {
          "name": "header",
          "type": "bytes"
        },
        {
          "name": "prefixHeader",
          "type": "bytes"
        },
        {
          "name": "prefixExtraData",
          "type": "bytes"
        }
      ],
      "name": "ExtractHash",
      "outputs": [],
      "payable": false,
      "stateMutability": "nonpayable",
      "type": "function"
    }
  ],
  "bytecode": "0x608060405234801561001057600080fd5b5060008054600160a060020a033316600160a060020a031990911617905561099b8061003d6000396000f3006080604052600436106100565763ffffffff7c0100000000000000000000000000000000000000000000000000000000600035041663b0e7308f811461005b578063d09ca90414610132578063fdace1be146101c9575b600080fd5b34801561006757600080fd5b506040805160206004803580820135601f810184900484028501840190955284845261013094369492936024939284019190819084018382808284375050604080516020601f89358b018035918201839004830284018301909452808352979a99988101979196509182019450925082915084018382808284375050604080516020601f89358b018035918201839004830284018301909452808352979a9998810197919650918201945092508291508401838280828437509497506102279650505050505050565b005b34801561013e57600080fd5b506040805160206004803580820135601f810184900484028501840190955284845261013094369492936024939284019190819084018382808284375050604080516020601f89358b018035918201839004830284018301909452808352979a9998810197919650918201945092508291508401838280828437509497506104929650505050505050565b3480156101d557600080fd5b5060408051602060046024803582810135601f81018590048502860185019096528585526101309583359536956044949193909101919081908401838280828437509497506107179650505050505050565b60008060608060608060606000808b5198508b6040518082805190602001908083835b602083106102695780518252601f19909201916020918201910161024a565b51815160209384036101000a6000190180199092169116179052604080519290940182900382208083529351939d507fcd7ee33e1a630d6301d87631aab1d4ddce7e1942593cd2689aa989f76d67cf0195509083900301925050a1608d89036040519080825280601f01601f1916602001820160405280156102f5578160200160208202803883390190505b5060408051601f808252818301909252919850602082016103e08038833950506040805160418082526080820190925292985090506020820161082080388339505060408051602a808252606082019092529297509050602082016105408038833901905050935061036b878d60008a51610775565b600260218801600260208e016004610bb8fa5061038e868d608c8c038951610775565b600160208701600160208d016004610bb8fa506103b1848d602a8c038751610775565b6103bc878786610828565b9250826040518082805190602001908083835b602083106103ee5780518252601f1990920191602091820191016103cf565b6001836020036101000a0380198251168184511680821785525050505050509050019150506040518091039020915061042d858d606b8c038851610775565b61043782866108bf565b6040805173ffffffffffffffffffffffffffffffffffffffff8316815290519192507fba2fe28067a0918af64c5359b1579f887bf1479dd3163c7e5d456314168854a5919081900360200190a1505050505050505050505050565b600080606080856040518082805190602001908083835b602083106104c85780518252601f1990920191602091820191016104a9565b6001836020036101000a0380198251168184511680821785525050505050509050019150506040518091039020935061050184866108bf565b604080516020808252818301909252919450808201610400803883395050604080516020808252818301909252929450905080820161040080388339019050509050610551828760046020610775565b61055f8187605b6020610775565b7f8511795469a13c04a2bc22c3f1309fc0bd918a0a25a3e7e222a0417b719274c786838360405180806020018060200180602001848103845287818151815260200191508051906020019080838360005b838110156105c85781810151838201526020016105b0565b50505050905090810190601f1680156105f55780820380516001836020036101000a031916815260200191505b50848103835286518152865160209182019188019080838360005b83811015610628578181015183820152602001610610565b50505050905090810190601f1680156106555780820380516001836020036101000a031916815260200191505b50848103825285518152855160209182019187019080838360005b83811015610688578181015183820152602001610670565b50505050905090810190601f1680156106b55780820380516001836020036101000a031916815260200191505b50965050505050505060405180910390a16040805173ffffffffffffffffffffffffffffffffffffffff8516815290517fba2fe28067a0918af64c5359b1579f887bf1479dd3163c7e5d456314168854a59181900360200190a1505050505050565b600061072383836108bf565b6040805173ffffffffffffffffffffffffffffffffffffffff8316815290519192507fba2fe28067a0918af64c5359b1579f887bf1479dd3163c7e5d456314168854a5919081900360200190a1505050565b60005b81811015610821578381840181518110151561079057fe5b9060200101517f010000000000000000000000000000000000000000000000000000000000000090047f01000000000000000000000000000000000000000000000000000000000000000285828151811015156107e957fe5b9060200101907effffffffffffffffffffffffffffffffffffffffffffffffffffffffffffff1916908160001a905350600101610778565b5050505050565b82518251825160408051600284860180850191820180845260206021909301601f191684018301909452606096959491860193919260229091019190879082801561087d578160200160208202803883390190505b50905086602082018860208e016004610bb8fa50858582018760208d016004610bb8fa50838382018560208c016004610bb8fa509a9950505050505050505050565b600080600080845160411415156108d557600080fd5b50505060208201516040830151606084015160001a601b60ff821610156108fa57601b015b8060ff16601b148061090f57508060ff16601c145b151561091a57600080fd5b61092686828585610930565b9695505050505050565b60008060006040518781528660208201528560408201528460608201526020816080836001610bb8fa9051909250905060018215151461092657600080fd00a165627a7a723058201c3d8664951f67e0da5abb547375de4421117ef8669c4a13b8bfbc0a3c6a14ae0029",
  "source": "// Copyright (c) 2016-2018 Clearmatics Technologies Ltd\n// SPDX-License-Identifier: LGPL-3.0+\npragma solidity ^0.4.23;\n\nimport \"./ECVerify.sol\";\n\ncontract Recover {\n\taddress Owner;\n\n\tevent broadcastSig(address owner);\n\tevent broadcastHashData(bytes header, bytes parentHash, bytes rootHash);\n\t/* event test(bytes start, bytes data); */\n\tevent broadcastHash(bytes32 blockHash);\n\tevent test(bytes header);\n\n\tconstructor () public {\n\t\tOwner = msg.sender;\n\t}\n\n\t/*\n\t * @param data  \t\t\tdata that has been signed\n\t * @param sig    \t\t\tsignature of data\n\t */\n\tfunction VerifyHash(bytes32 data, bytes sig) public {\n\t\taddress sig_addr = ECVerify.ecrecovery(data, sig);\n\n\t\temit broadcastSig(sig_addr);\n\t}\n\n\t/*\n\t* @param header  \t\t\theader rlp encoded, with extraData signatures removed\n\t* @param sig    \t\t\textraData signatures\n\t*/\n\tfunction VerifyBlock(bytes header, bytes sig) public {\n\t\tbytes32 hashData = keccak256(header);\n\t\taddress sig_addr = ECVerify.ecrecovery(hashData, sig);\n\n\t\tbytes memory parentHash = new bytes(32);\n\t\tbytes memory rootHash = new bytes(32);\n\n\t\t// get parentHash and rootHash\n\t\textractData(parentHash, header, 4, 32);\n\t\textractData(rootHash, header, 91, 32);\n\n\t\temit broadcastHashData(header, parentHash, rootHash);\n\t\temit broadcastSig(sig_addr);\n\t}\n\n\t/*\n\t* @param header  \t\t\t\t\theader rlp encoded, with extraData signatures removed\n\t* @param prefixHeader\t\t\tthe new prefix for the signed hash header\n\t* @param prefixExtraData\tthe new prefix for the extraData field\n\t*/\n\tfunction ExtractHash(bytes header, bytes prefixHeader, bytes prefixExtraData) public {\n\t\tuint256 length = header.length;\n\t\tbytes32 blockHash = keccak256(header);\n\n\t\temit broadcastHash(blockHash);\n\n\t\tbytes memory headerStart \t= new bytes(length - 141);\n\t\tbytes memory extraData \t\t= new bytes(31);\n\t\tbytes memory extraDataSig\t= new bytes(65);\n\t\tbytes memory headerEnd \t\t= new bytes(42);\n\n\t\t// Extract the start of the header and replace the length\n\t\textractData(headerStart, header, 0, headerStart.length);\n\t\tassembly {\n           let ret := staticcall(3000, 4, add(prefixHeader, 32), 2, add(headerStart, 33), 2)\n    }\n\n\t\t// Extract the real extra data and create the signed hash\n\t\textractData(extraData, header, length-140, extraData.length);\n\t\tassembly {\n\t\t\t\t\t let ret := staticcall(3000, 4, add(prefixExtraData, 32), 1, add(extraData, 32), 1)\n\t\t}\n\n\t\t// Extract the end of the header\n\t\textractData(headerEnd, header, length-42, headerEnd.length);\n\t\tbytes memory newHeader = mergeHash(headerStart, extraData, headerEnd);\n\n\t\tbytes32 hashData = keccak256(newHeader);\n\n\t\t// Extract the signature of the hash create above\n\t\textractData(extraDataSig, header, length-107, extraDataSig.length);\n\n\t\taddress sig_addr = ECVerify.ecrecovery(hashData, extraDataSig);\n\n\t\temit broadcastSig(sig_addr);\n\n\t}\n\n\tfunction mergeHash(bytes headerStart, bytes extraData, bytes headerEnd) internal view returns (bytes output) {\n\t\t// Get the lengths sorted because they're needed later...\n\t\tuint256 headerStartLength = headerStart.length;\n\t\tuint256 extraDataLength = extraData.length;\n\t\tuint256 extraDataStart = headerStartLength + 32;\n\t\tuint256 headerEndLength = headerEnd.length;\n\t\tuint256 headerEndStart = extraDataLength + headerStartLength + 32 + 2;\n\t\tuint256 newLength = headerStartLength + extraDataLength + headerEndLength + 2; // extra two is for the prefix\n\t\tbytes memory header = new bytes(newLength);\n\n\n\t\t// Add in the first part of the header\n\t\tassembly {\n\t\t\tlet ret := staticcall(3000, 4, add(headerStart, 32), headerStartLength, add(header, 32), headerStartLength)\n\t\t}\n\t\tassembly {\n\t\t\tlet ret := staticcall(3000, 4, add(extraData, 32), extraDataLength, add(header, extraDataStart), extraDataLength)\n\t\t}\n\t\tassembly {\n\t\t\tlet ret := staticcall(3000, 4, add(headerEnd, 32), headerEndLength, add(header, headerEndStart), headerEndLength)\n\t\t}\n\n\t\toutput = header;\n\t}\n\n\t/*\n\t* @param data\t  \t\t\tmemory allocation for the data you need to extract\n\t* @param sig    \t\t\tarray from which the data should be extracted\n\t* @param start   \t\t\tindex which the data starts within the byte array\n\t* @param length  \t\t\ttotal length of the data to be extracted\n\t*/\n\tfunction extractData(bytes data, bytes input, uint start, uint length) private pure {\n\t\tfor (uint i=0; i<length; i++) {\n\t\t\tdata[i] = input[start+i];\n\t\t}\n\t}\n\n}\n",
  "sourcePath": "/home/user97/go/src/github.com/validation/contracts/Recover.sol",
  "compiler": {
    "name": "solc",
    "version": "0.4.23+commit.124ca40d.Emscripten.clang"
  },
  "schemaVersion": "2.0.0",
  "updatedAt": "2018-06-22T20:23:18.414Z"
}