{
  "contractName": "Validation",
  "abi": [
    {
      "constant": true,
      "inputs": [
        {
          "name": "",
          "type": "bytes32"
        }
      ],
      "name": "m_blockheaders",
      "outputs": [
        {
          "name": "prevBlockHash",
          "type": "bytes32"
        }
      ],
      "payable": false,
      "stateMutability": "view",
      "type": "function"
    },
    {
      "inputs": [
        {
          "name": "_validators",
          "type": "address[]"
        }
      ],
      "payable": false,
      "stateMutability": "nonpayable",
      "type": "constructor"
    },
    {
      "anonymous": false,
      "inputs": [
        {
          "indexed": false,
          "name": "owner",
          "type": "address"
        }
      ],
      "name": "broadcastSig",
      "type": "event"
    },
    {
      "anonymous": false,
      "inputs": [
        {
          "indexed": false,
          "name": "header",
          "type": "bytes"
        },
        {
          "indexed": false,
          "name": "parentHash",
          "type": "bytes"
        },
        {
          "indexed": false,
          "name": "rootHash",
          "type": "bytes"
        }
      ],
      "name": "broadcastHashData",
      "type": "event"
    },
    {
      "anonymous": false,
      "inputs": [
        {
          "indexed": false,
          "name": "blockHash",
          "type": "bytes32"
        }
      ],
      "name": "broadcastHash",
      "type": "event"
    },
    {
      "constant": true,
      "inputs": [],
      "name": "GetValidators",
      "outputs": [
        {
          "name": "_validators",
          "type": "address[]"
        }
      ],
      "payable": false,
      "stateMutability": "view",
      "type": "function"
    },
    {
      "constant": false,
      "inputs": [
        {
          "name": "header",
          "type": "bytes"
        },
        {
          "name": "prefixHeader",
          "type": "bytes"
        },
        {
          "name": "prefixExtraData",
          "type": "bytes"
        }
      ],
      "name": "ValidateBlock",
      "outputs": [],
      "payable": false,
      "stateMutability": "nonpayable",
      "type": "function"
    }
  ],
  "bytecode": "0x608060405234801561001057600080fd5b5060405161086238038061086283398101604052805160008054600160a060020a03191633600160a060020a03161781559101905b81518110156100e6576001828281518110151561005e57fe5b6020908102919091018101518254600180820185556000948552928420018054600160a060020a031916600160a060020a03909216919091179055835190916003918590859081106100ac57fe5b602090810291909101810151600160a060020a03168252810191909152604001600020805460ff1916911515919091179055600101610045565b505061076b806100f76000396000f3006080604052600436106100565763ffffffff7c0100000000000000000000000000000000000000000000000000000000600035041663927a32e3811461005b578063aae933e414610085578063d405af3d1461015c575b600080fd5b34801561006757600080fd5b506100736004356101c1565b60408051918252519081900360200190f35b34801561009157600080fd5b506040805160206004803580820135601f810184900484028501840190955284845261015a94369492936024939284019190819084018382808284375050604080516020601f89358b018035918201839004830284018301909452808352979a99988101979196509182019450925082915084018382808284375050604080516020601f89358b018035918201839004830284018301909452808352979a9998810197919650918201945092508291508401838280828437509497506101d39650505050505050565b005b34801561016857600080fd5b506101716104d6565b60408051602080825283518183015283519192839290830191858101910280838360005b838110156101ad578181015183820152602001610195565b505050509050019250505060405180910390f35b60026020526000908152604090205481565b60008060608060608060606000808b5198508b6040518082805190602001908083835b602083106102155780518252601f1990920191602091820191016101f6565b51815160209384036101000a6000190180199092169116179052604080519290940182900382208083529351939d507fcd7ee33e1a630d6301d87631aab1d4ddce7e1942593cd2689aa989f76d67cf0195509083900301925050a1608d89036040519080825280601f01601f1916602001820160405280156102a1578160200160208202803883390190505b5060408051601f808252818301909252919850602082016103e08038833950506040805160418082526080820190925292985090506020820161082080388339505060408051602a8082526060820190925292975090506020820161054080388339019050509350610317878d60008a51610545565b600260218801600260208e016004610bb8fa5061033a868d608c8c038951610545565b600160208701600160208d016004610bb8fa5061035d848d602a8c038751610545565b6103688787866105f8565b9250826040518082805190602001908083835b6020831061039a5780518252601f19909201916020918201910161037b565b6001836020036101000a038019825116818451168082178552505050505050905001915050604051809103902091506103d9858d606b8c038851610545565b6103e3828661068f565b73ffffffffffffffffffffffffffffffffffffffff811660009081526003602052604090205490915060ff16151560011461047f57604080517f08c379a000000000000000000000000000000000000000000000000000000000815260206004820152601760248201527f5369676e6572206e6f7420612076616c696461746f7221000000000000000000604482015290519081900360640190fd5b6040805173ffffffffffffffffffffffffffffffffffffffff8316815290517fba2fe28067a0918af64c5359b1579f887bf1479dd3163c7e5d456314168854a59181900360200190a1505050505050505050505050565b6060600180548060200260200160405190810160405280929190818152602001828054801561053b57602002820191906000526020600020905b815473ffffffffffffffffffffffffffffffffffffffff168152600190910190602001808311610510575b5050505050905090565b60005b818110156105f1578381840181518110151561056057fe5b9060200101517f010000000000000000000000000000000000000000000000000000000000000090047f01000000000000000000000000000000000000000000000000000000000000000285828151811015156105b957fe5b9060200101907effffffffffffffffffffffffffffffffffffffffffffffffffffffffffffff1916908160001a905350600101610548565b5050505050565b82518251825160408051600284860180850191820180845260206021909301601f191684018301909452606096959491860193919260229091019190879082801561064d578160200160208202803883390190505b50905086602082018860208e016004610bb8fa50858582018760208d016004610bb8fa50838382018560208c016004610bb8fa509a9950505050505050505050565b600080600080845160411415156106a557600080fd5b50505060208201516040830151606084015160001a601b60ff821610156106ca57601b015b8060ff16601b14806106df57508060ff16601c145b15156106ea57600080fd5b6106f686828585610700565b9695505050505050565b60008060006040518781528660208201528560408201528460608201526020816080836001610bb8fa905190925090506001821515146106f657600080fd00a165627a7a72305820623c610ccae3852923dc629dd61c0e4fd8301ac7b98f1891c4e8bca42bb265ac0029",
  "source": "// Copyright (c) 2016-2018 Clearmatics Technologies Ltd\n// SPDX-License-Identifier: LGPL-3.0+\npragma solidity ^0.4.23;\n\nimport \"./ECVerify.sol\";\n\ncontract Validation {\n\taddress Owner;\n\n\tevent broadcastSig(address owner);\n\tevent broadcastHashData(bytes header, bytes parentHash, bytes rootHash);\n\tevent broadcastHash(bytes32 blockHash);\n\n\taddress[] validators;\n\n\tstruct BlockHeader {\n\t\tbytes32 prevBlockHash;\n\t}\n\n\tmapping (bytes32 => BlockHeader) public m_blockheaders;\n\tmapping( address => bool ) m_validators;\n\n\t/*\n\t*\t@param _validators\t\t\tlist of validators at block 0\n\t*/\n\tconstructor (address[] _validators) public {\n\t\tOwner = msg.sender;\n\t\tfor (uint i = 0; i < _validators.length; i++) {\n\t\t\tvalidators.push(_validators[i]);\n\t\t\tm_validators[_validators[i]] = true;\n    }\n\t}\n\n\t/*\n\t* Returns the validators array\n\t*/\n\tfunction GetValidators() public view returns (address[] _validators) {\n\t\treturn validators;\n\t}\n\n\t/*\n\t* @param header  \t\t\t\t\theader rlp encoded, with extraData signatures removed\n\t* @param prefixHeader\t\t\tthe new prefix for the signed hash header\n\t* @param prefixExtraData\tthe new prefix for the extraData field\n\t*/\n\tfunction ValidateBlock(bytes header, bytes prefixHeader, bytes prefixExtraData) public {\n\t\tuint256 length = header.length;\n\t\tbytes32 blockHash = keccak256(header);\n\n\t\temit broadcastHash(blockHash);\n\n\t\tbytes memory headerStart \t= new bytes(length - 141);\n\t\tbytes memory extraData \t\t= new bytes(31);\n\t\tbytes memory extraDataSig\t= new bytes(65);\n\t\tbytes memory headerEnd \t\t= new bytes(42);\n\n\t\t// Extract the start of the header and replace the length\n\t\textractData(headerStart, header, 0, headerStart.length);\n\t\tassembly {\n           let ret := staticcall(3000, 4, add(prefixHeader, 32), 2, add(headerStart, 33), 2)\n    }\n\n\t\t// Extract the real extra data and create the signed hash\n\t\textractData(extraData, header, length-140, extraData.length);\n\t\tassembly {\n\t\t\t\t\t let ret := staticcall(3000, 4, add(prefixExtraData, 32), 1, add(extraData, 32), 1)\n\t\t}\n\n\t\t// Extract the end of the header\n\t\textractData(headerEnd, header, length-42, headerEnd.length);\n\t\tbytes memory newHeader = mergeHash(headerStart, extraData, headerEnd);\n\n\t\tbytes32 hashData = keccak256(newHeader);\n\n\t\t// Extract the signature of the hash create above\n\t\textractData(extraDataSig, header, length-107, extraDataSig.length);\n\n\t\taddress sig_addr = ECVerify.ecrecovery(hashData, extraDataSig);\n\t\trequire(m_validators[sig_addr]==true, \"Signer not a validator!\");\n\n\t\temit broadcastSig(sig_addr);\n\n\t}\n\n\tfunction mergeHash(bytes headerStart, bytes extraData, bytes headerEnd) internal view returns (bytes output) {\n\t\t// Get the lengths sorted because they're needed later...\n\t\tuint256 headerStartLength = headerStart.length;\n\t\tuint256 extraDataLength = extraData.length;\n\t\tuint256 extraDataStart = headerStartLength + 32;\n\t\tuint256 headerEndLength = headerEnd.length;\n\t\tuint256 headerEndStart = extraDataLength + headerStartLength + 32 + 2;\n\t\tuint256 newLength = headerStartLength + extraDataLength + headerEndLength + 2; // extra two is for the prefix\n\t\tbytes memory header = new bytes(newLength);\n\n\n\t\t// Add in the first part of the header\n\t\tassembly {\n\t\t\tlet ret := staticcall(3000, 4, add(headerStart, 32), headerStartLength, add(header, 32), headerStartLength)\n\t\t}\n\t\tassembly {\n\t\t\tlet ret := staticcall(3000, 4, add(extraData, 32), extraDataLength, add(header, extraDataStart), extraDataLength)\n\t\t}\n\t\tassembly {\n\t\t\tlet ret := staticcall(3000, 4, add(headerEnd, 32), headerEndLength, add(header, headerEndStart), headerEndLength)\n\t\t}\n\n\t\toutput = header;\n\t}\n\n\t/*\n\t* @param data\t  \t\t\tmemory allocation for the data you need to extract\n\t* @param sig    \t\t\tarray from which the data should be extracted\n\t* @param start   \t\t\tindex which the data starts within the byte array\n\t* @param length  \t\t\ttotal length of the data to be extracted\n\t*/\n\tfunction extractData(bytes data, bytes input, uint start, uint length) private pure {\n\t\tfor (uint i=0; i<length; i++) {\n\t\t\tdata[i] = input[start+i];\n\t\t}\n\t}\n\n}\n",
  "sourcePath": "/home/user97/go/src/github.com/validation/contracts/Validation.sol",
  "compiler": {
    "name": "solc",
    "version": "0.4.23+commit.124ca40d.Emscripten.clang"
  },
  "schemaVersion": "2.0.0",
  "updatedAt": "2018-06-23T09:57:05.921Z"
}