{
  "contractName": "Validation",
  "abi": [
    {
      "inputs": [
        {
          "name": "_validators",
          "type": "address[]"
        }
      ],
      "payable": false,
      "stateMutability": "nonpayable",
      "type": "constructor"
    },
    {
      "anonymous": false,
      "inputs": [
        {
          "indexed": false,
          "name": "owner",
          "type": "address"
        }
      ],
      "name": "broadcastSig",
      "type": "event"
    },
    {
      "anonymous": false,
      "inputs": [
        {
          "indexed": false,
          "name": "header",
          "type": "bytes"
        },
        {
          "indexed": false,
          "name": "parentHash",
          "type": "bytes"
        },
        {
          "indexed": false,
          "name": "rootHash",
          "type": "bytes"
        }
      ],
      "name": "broadcastHashData",
      "type": "event"
    },
    {
      "anonymous": false,
      "inputs": [
        {
          "indexed": false,
          "name": "blockHash",
          "type": "bytes32"
        }
      ],
      "name": "broadcastHash",
      "type": "event"
    },
    {
      "constant": true,
      "inputs": [],
      "name": "GetValidators",
      "outputs": [
        {
          "name": "_validators",
          "type": "address[]"
        }
      ],
      "payable": false,
      "stateMutability": "view",
      "type": "function"
    },
    {
      "constant": false,
      "inputs": [
        {
          "name": "header",
          "type": "bytes"
        },
        {
          "name": "prefixHeader",
          "type": "bytes"
        },
        {
          "name": "prefixExtraData",
          "type": "bytes"
        }
      ],
      "name": "ValidateBlock",
      "outputs": [],
      "payable": false,
      "stateMutability": "nonpayable",
      "type": "function"
    }
  ],
  "bytecode": "0x608060405234801561001057600080fd5b5060405161081b38038061081b83398101604052805160008054600160a060020a03191633600160a060020a03161781559101905b81518110156100e6576001828281518110151561005e57fe5b6020908102919091018101518254600180820185556000948552928420018054600160a060020a031916600160a060020a03909216919091179055835190916002918590859081106100ac57fe5b602090810291909101810151600160a060020a03168252810191909152604001600020805460ff1916911515919091179055600101610045565b5050610724806100f76000396000f30060806040526004361061004b5763ffffffff7c0100000000000000000000000000000000000000000000000000000000600035041663aae933e48114610050578063d405af3d14610127575b600080fd5b34801561005c57600080fd5b506040805160206004803580820135601f810184900484028501840190955284845261012594369492936024939284019190819084018382808284375050604080516020601f89358b018035918201839004830284018301909452808352979a99988101979196509182019450925082915084018382808284375050604080516020601f89358b018035918201839004830284018301909452808352979a99988101979196509182019450925082915084018382808284375094975061018c9650505050505050565b005b34801561013357600080fd5b5061013c61048f565b60408051602080825283518183015283519192839290830191858101910280838360005b83811015610178578181015183820152602001610160565b505050509050019250505060405180910390f35b60008060608060608060606000808b5198508b6040518082805190602001908083835b602083106101ce5780518252601f1990920191602091820191016101af565b51815160209384036101000a6000190180199092169116179052604080519290940182900382208083529351939d507fcd7ee33e1a630d6301d87631aab1d4ddce7e1942593cd2689aa989f76d67cf0195509083900301925050a1608d89036040519080825280601f01601f19166020018201604052801561025a578160200160208202803883390190505b5060408051601f808252818301909252919850602082016103e08038833950506040805160418082526080820190925292985090506020820161082080388339505060408051602a80825260608201909252929750905060208201610540803883390190505093506102d0878d60008a516104fe565b600260218801600260208e016004610bb8fa506102f3868d608c8c0389516104fe565b600160208701600160208d016004610bb8fa50610316848d602a8c0387516104fe565b6103218787866105b1565b9250826040518082805190602001908083835b602083106103535780518252601f199092019160209182019101610334565b6001836020036101000a03801982511681845116808217855250505050505090500191505060405180910390209150610392858d606b8c0388516104fe565b61039c8286610648565b73ffffffffffffffffffffffffffffffffffffffff811660009081526002602052604090205490915060ff16151560011461043857604080517f08c379a000000000000000000000000000000000000000000000000000000000815260206004820152601760248201527f5369676e6572206e6f7420612076616c696461746f7221000000000000000000604482015290519081900360640190fd5b6040805173ffffffffffffffffffffffffffffffffffffffff8316815290517fba2fe28067a0918af64c5359b1579f887bf1479dd3163c7e5d456314168854a59181900360200190a1505050505050505050505050565b606060018054806020026020016040519081016040528092919081815260200182805480156104f457602002820191906000526020600020905b815473ffffffffffffffffffffffffffffffffffffffff1681526001909101906020018083116104c9575b5050505050905090565b60005b818110156105aa578381840181518110151561051957fe5b9060200101517f010000000000000000000000000000000000000000000000000000000000000090047f010000000000000000000000000000000000000000000000000000000000000002858281518110151561057257fe5b9060200101907effffffffffffffffffffffffffffffffffffffffffffffffffffffffffffff1916908160001a905350600101610501565b5050505050565b82518251825160408051600284860180850191820180845260206021909301601f1916840183019094526060969594918601939192602290910191908790828015610606578160200160208202803883390190505b50905086602082018860208e016004610bb8fa50858582018760208d016004610bb8fa50838382018560208c016004610bb8fa509a9950505050505050505050565b6000806000808451604114151561065e57600080fd5b50505060208201516040830151606084015160001a601b60ff8216101561068357601b015b8060ff16601b148061069857508060ff16601c145b15156106a357600080fd5b6106af868285856106b9565b9695505050505050565b60008060006040518781528660208201528560408201528460608201526020816080836001610bb8fa905190925090506001821515146106af57600080fd00a165627a7a723058207a085ad21a4357386e0716b8a65f927e5dd24bb585198fb59efd2b0408c0596a0029",
  "source": "// Copyright (c) 2016-2018 Clearmatics Technologies Ltd\n// SPDX-License-Identifier: LGPL-3.0+\npragma solidity ^0.4.23;\n\nimport \"./ECVerify.sol\";\n\ncontract Validation {\n\taddress Owner;\n\n\tevent broadcastSig(address owner);\n\tevent broadcastHashData(bytes header, bytes parentHash, bytes rootHash);\n\tevent broadcastHash(bytes32 blockHash);\n\n\taddress[] validators;\n\n\tmapping( address => bool ) m_validators;\n\n\n\n\t/*\n\t*\t@param _validators\t\t\tlist of validators at block 0\n\t*/\n\tconstructor (address[] _validators) public {\n\t\tOwner = msg.sender;\n\t\tfor (uint i = 0; i < _validators.length; i++) {\n\t\t\tvalidators.push(_validators[i]);\n\t\t\tm_validators[_validators[i]] = true;\n    }\n\t}\n\n\t/*\n\t* Returns the validators array\n\t*/\n\tfunction GetValidators() public view returns (address[] _validators) {\n\t\treturn validators;\n\t}\n\n\t/*\n\t* @param header  \t\t\t\t\theader rlp encoded, with extraData signatures removed\n\t* @param prefixHeader\t\t\tthe new prefix for the signed hash header\n\t* @param prefixExtraData\tthe new prefix for the extraData field\n\t*/\n\tfunction ValidateBlock(bytes header, bytes prefixHeader, bytes prefixExtraData) public {\n\t\tuint256 length = header.length;\n\t\tbytes32 blockHash = keccak256(header);\n\n\t\temit broadcastHash(blockHash);\n\n\t\tbytes memory headerStart \t= new bytes(length - 141);\n\t\tbytes memory extraData \t\t= new bytes(31);\n\t\tbytes memory extraDataSig\t= new bytes(65);\n\t\tbytes memory headerEnd \t\t= new bytes(42);\n\n\t\t// Extract the start of the header and replace the length\n\t\textractData(headerStart, header, 0, headerStart.length);\n\t\tassembly {\n           let ret := staticcall(3000, 4, add(prefixHeader, 32), 2, add(headerStart, 33), 2)\n    }\n\n\t\t// Extract the real extra data and create the signed hash\n\t\textractData(extraData, header, length-140, extraData.length);\n\t\tassembly {\n\t\t\t\t\t let ret := staticcall(3000, 4, add(prefixExtraData, 32), 1, add(extraData, 32), 1)\n\t\t}\n\n\t\t// Extract the end of the header\n\t\textractData(headerEnd, header, length-42, headerEnd.length);\n\t\tbytes memory newHeader = mergeHash(headerStart, extraData, headerEnd);\n\n\t\tbytes32 hashData = keccak256(newHeader);\n\n\t\t// Extract the signature of the hash create above\n\t\textractData(extraDataSig, header, length-107, extraDataSig.length);\n\n\t\taddress sig_addr = ECVerify.ecrecovery(hashData, extraDataSig);\n\t\trequire(m_validators[sig_addr]==true, \"Signer not a validator!\");\n\n\t\temit broadcastSig(sig_addr);\n\n\t}\n\n\tfunction mergeHash(bytes headerStart, bytes extraData, bytes headerEnd) internal view returns (bytes output) {\n\t\t// Get the lengths sorted because they're needed later...\n\t\tuint256 headerStartLength = headerStart.length;\n\t\tuint256 extraDataLength = extraData.length;\n\t\tuint256 extraDataStart = headerStartLength + 32;\n\t\tuint256 headerEndLength = headerEnd.length;\n\t\tuint256 headerEndStart = extraDataLength + headerStartLength + 32 + 2;\n\t\tuint256 newLength = headerStartLength + extraDataLength + headerEndLength + 2; // extra two is for the prefix\n\t\tbytes memory header = new bytes(newLength);\n\n\n\t\t// Add in the first part of the header\n\t\tassembly {\n\t\t\tlet ret := staticcall(3000, 4, add(headerStart, 32), headerStartLength, add(header, 32), headerStartLength)\n\t\t}\n\t\tassembly {\n\t\t\tlet ret := staticcall(3000, 4, add(extraData, 32), extraDataLength, add(header, extraDataStart), extraDataLength)\n\t\t}\n\t\tassembly {\n\t\t\tlet ret := staticcall(3000, 4, add(headerEnd, 32), headerEndLength, add(header, headerEndStart), headerEndLength)\n\t\t}\n\n\t\toutput = header;\n\t}\n\n\t/*\n\t* @param data\t  \t\t\tmemory allocation for the data you need to extract\n\t* @param sig    \t\t\tarray from which the data should be extracted\n\t* @param start   \t\t\tindex which the data starts within the byte array\n\t* @param length  \t\t\ttotal length of the data to be extracted\n\t*/\n\tfunction extractData(bytes data, bytes input, uint start, uint length) private pure {\n\t\tfor (uint i=0; i<length; i++) {\n\t\t\tdata[i] = input[start+i];\n\t\t}\n\t}\n\n}\n",
  "sourcePath": "/home/user97/go/src/github.com/validation/contracts/Validation.sol",
  "compiler": {
    "name": "solc",
    "version": "0.4.23+commit.124ca40d.Emscripten.clang"
  },
  "schemaVersion": "2.0.0",
  "updatedAt": "2018-06-22T09:06:01.579Z"
}